:100000000C942C010C9449010C9449010C94490165
:100010000C9449010C9449010C9449010C94490138
:100020000C9449010C9449010C9449010C94490128
:100030000C9449010C9449010C9449010C94490118
:100040000C9449010C9449010C9449010C94490108
:100050000C9449010C9449010C9449010C944901F8
:100060000C9449010C9449010C9449010C944901E8
:100070000C9449010C9449010C94490100000000C2
:100080000000005F00000003000300143E143E1453
:10009000242A7F2A124333086661364955225000CC
:1000A00005030000001C2241000041221C0014082E
:1000B0003E081408083E08080050300000080808F0
:1000C0000808006060000020100804023E51494505
:1000D0003E0004027F0042615149462241494936AF
:1000E0001814127F1027454545393E4949493201C8
:1000F000017109073649494936264949493E0036C2
:100100003600000056360000081422410014141472
:100110001414004122140802015109063E415955A8
:100120005E7E0909097E7F494949363E41414122A7
:100130007F4141413E7F494949417F090909013ECB
:100140004141493A7F0808087F00417F4100304023
:1001500040403F7F081422417F404040407F020CD6
:10016000027F7F0204087F3E4141413E7F09090929
:10017000061E2121215E7F09090976264949493257
:1001800001017F01013F4040403F1F2040201F7F71
:100190002010207F41221C2241070870080761516E
:1001A000494543007F41000002040810200000413F
:1001B0007F0004020102044040404040000102046C
:1001C0000020545454787F444444383844444444D0
:1001D000384444447F385454541804047E050508B8
:1001E0005454543C7F0804047800447D400020406F
:1001F000443D007F1028440000417F40007C04788B
:1002000004787C0804047838444444387C1414147A
:1002100008081414147C007C080404485454542026
:1002200004043F44443C4040207C1C2040201C3CB3
:100230004030403C44281028440C5050503C44640A
:10024000544C44000836414100007F0000414136D3
:10025000080002010204020011241FBECFEFD0E10A
:10026000DEBFCDBF11E0A0E0B1E0E8E1FAE002C0FE
:1002700005900D92AE34B107D9F711E0AEE4B1E0CC
:1002800001C01D92AE34B107E1F70E944B010C94FE
:100290000A050C9400000E94540180E091E00E9445
:1002A000B20380E090E0089585B7806885BF85B788
:1002B000806885BF8FE781B98FEF87B90E94C5033A
:1002C00008959093110180931001149826E328B9A2
:1002D0001398139A149A009771F480EF90E090931A
:1002E0000D0180930C0180E491E090930F018093C5
:1002F0000E0188E432C08130910571F480E491E010
:1003000090930D0180930C0180EF90E090930F018A
:1003100080930E0188EE21C08230910571F480EF48
:1003200090E090930D0180930C0180E491E0909314
:100330000F0180930E0188E810C08330910581F48D
:1003400080E491E090930D0180930C0180EF90E0A8
:1003500090930F0180930E0188E288B91398139A45
:1003600014988AE288B91398139A149A18B81398B3
:10037000139A18B81398139A80910C0190910D015B
:10038000019798B91398139A80910C01815088B9FC
:100390001398139A14988BE288B91398139A149AA5
:1003A00018B81398139A18B81398139A80910E01DD
:1003B00090910F01019798B91398139A80910E01AB
:1003C000815088B91398139A08950F931F93CF9370
:1003D000DF93CDB7DEB728970FB6F894DEBF0FBE18
:1003E000CDBFE22F2983232F3A834B835C83362FA3
:1003F0006D83672F7E838F8398877E2F4B815C81EF
:10040000A32FEF81F88514988AE288B91398139A7C
:10041000149A28B91398139A78B91398139A58B95B
:100420001398139A48B91398139A14988BE288B9C1
:100430001398139A149A68B91398139A38B91398A1
:10044000139AF8B91398139AE8B91398139A149851
:100450008CE288B91398139A149A872F922F0CC0A4
:1004600018B91398139A08B91398139A2F5F3F4F2E
:10047000E217F307A8F701964817590718F02A2F33
:10048000362FF6CF28960FB6F894DEBF0FBECDBF3D
:10049000DF91CF911F910F9108950F931F93CF93E9
:1004A000DF93CDB7DEB728970FB6F894DEBF0FBE47
:1004B000CDBFA22F2983232F3A834B835C83362F12
:1004C0006D837E838F839887F8018A2FAB81BC81EF
:1004D000672F0F81188514989AE298B91398139A88
:1004E000149A28B91398139A88B91398139AB8B91B
:1004F0001398139AA8B91398139A14989BE298B971
:100500001398139A149A78B91398139A38B91398C0
:10051000139A18B91398139A08B91398139A149840
:100520009CE298B91398139A149A482F522F0FC02F
:10053000218128B91398139A228128B934961398E7
:10054000139A01960817190798F74F5F5F4FA41782
:10055000B50718F0832F962FF5CF28960FB6F8948D
:10056000DEBF0FBECDBFDF91CF911F910F910895D8
:100570000F931F93CF93DF93CDB7DEB728970FB6B6
:10058000F894DEBF0FBECDBF10921301109212017E
:1005900010921501109214011A821982ECE0F1E018
:1005A000808191810197482F9C838B831E821D82BD
:1005B00082819381019798878F830485158520E038
:1005C0003A815C8160E07E8198850E94E5012896F1
:1005D0000FB6F894DEBF0FBECDBFDF91CF911F9154
:1005E0000F910895EF92FF920F931F93CF93DF9394
:1005F00040911201509113018A010C5F1F4F6091CD
:10060000140170911501982F90529F3508F0A3C0E6
:10061000DB01179690E09C01220F331F220F331F3E
:10062000280F391F2452304014988BE288B9139850
:10063000139A149A78B91398139A68B91398139A5D
:10064000B8B91398139AA8B91398139ACA01CAE2B1
:10065000DCE238C0C8B91398139A149A98B9139861
:10066000139A88B91398139A98B91398139A88B95A
:100670001398139A1498D8B91398139A149AF901E5
:100680002F5F3F4FE491AB01F1E018C0FF2EFE2237
:1006900019F0E090170102C0E0901901E8B8139832
:1006A000139AFF2019F0F090160102C0F090180183
:1006B000F8B81398139A4F5F5F4FFF0FA417B50751
:1006C00028F7019614980817190708F0C3CF2AE2F3
:1006D00028B91398139A149A98B91398139A88B949
:1006E0001398139A98B91398139A88B91398139A70
:1006F00014988CE288B91398139A149A0CC08091BC
:10070000190188B91398139A8091180188B9139820
:10071000139A6F5F7F4FA617B70788F78091120172
:1007200090911301069690931301809312012091EA
:100730000C0130910D018217930768F0109213019C
:100740001092120180911401909115010896ECE02D
:10075000F1E091878087DF91CF911F910F91FF90FA
:10076000EF9008951F93CF93DF93EC0110E003C047
:100770000E94F2021F5FFE01E10FF11D80818823BC
:10078000B9F7DF91CF911F91089512988FE799EAF9
:10079000A3E081509040A040E1F700C00000129A11
:1007A0008FE799EAA3E081509040A040E1F700C0B4
:1007B0000000149A139A159A10981198169A149882
:1007C00088E288B91398139A149A149881E188B929
:1007D0001398139A149A8FE792E3A2E08150904005
:1007E000A040E1F700C0000014988BEC88B9139882
:1007F000139A149A81E088B91398139A149880EC8C
:1008000088B91398139A149A86E288B91398139AA0
:1008100088E088B91398139A149881EC88B91398D2
:10082000139A149A80E188B91398139A149885EC56
:1008300088B91398139A149A85E388B91398139A70
:100840008EE388B91398139A149886E388B913989D
:10085000139A149A88E488B91398139A149880EB21
:1008600088B91398139A149A8AE488B91398139A3A
:10087000149881EB88B91398139A149A18B813989E
:10088000139A8BE188B91398139A149886EB88B958
:100890001398139A149A84E0E8E4F1E0919198B9DE
:1008A0001398139A8150D1F7149887EC88B913984C
:1008B000139A149A85EB88B91398139A149886EFB3
:1008C00088B91398139A149AE4E4F1E080E09191C6
:1008D00098B91398139A8F5F8330C9F7149882EFF1
:1008E00088B91398139A149A18B81398139A1498ED
:1008F00086E288B91398139A149A81E088B91398FC
:10090000139A14988AE388B91398139A149A85E570
:1009100088B91398139A149880EE88B91398139A8B
:10092000149A8FE0E4E3F1E0919198B91398139A47
:100930008150D1F7149881EE88B91398139A149ABC
:10094000E4E2F1E080E0919198B91398139A8F5FF7
:100950008F30C9F714988AE288B91398139A149AB9
:10096000EFE1F1E080E0919198B91398139A8F5FCD
:100970008430C9F714988BE288B91398139A149AA3
:1009800084E0EAE1F1E0919198B91398139A8150CB
:10099000D1F7149884E388B91398139A149A149889
:1009A00084EB88B91398139A149A18B81398139A69
:1009B000149887EB88B91398139A149A87E088B92A
:1009C0001398139A14988CE288B91398139A149A6E
:1009D00080EF90E00BC018B81398139A18B81398CA
:1009E000139A21503040B9F7019719F020E431E013
:1009F000F2CF149889E288B91398139A149A8FEB5E
:100A000094EDA1E081509040A040E1F700C00000CB
:080A1000119A0895F894FFCF3C
:100A180048656C6C6F20576F726C6400F000400181
:100A2800000000000000FFFF00000000013F000080
:100A38000000EF000025270510093A784D05180D2C
:100A4800383A1F001F1A180A0F064587320A07028C
:0E0A580007050000010000000A8227000000D0
:00000001FF
