:100000000C942C010C9449010C9449010C94490165
:100010000C9449010C9449010C9449010C94490138
:100020000C9449010C9449010C9449010C94490128
:100030000C9449010C9449010C9449010C94490118
:100040000C9449010C9449010C9449010C94490108
:100050000C9449010C9449010C9449010C944901F8
:100060000C9449010C9449010C9449010C944901E8
:100070000C9449010C9449010C94490100000000C2
:100080000000005F00000003000300143E143E1453
:10009000242A7F2A124333086661364955225000CC
:1000A00005030000001C2241000041221C0014082E
:1000B0003E081408083E08080050300000080808F0
:1000C0000808006060000020100804023E51494505
:1000D0003E0004027F0042615149462241494936AF
:1000E0001814127F1027454545393E4949493201C8
:1000F000017109073649494936264949493E0036C2
:100100003600000056360000081422410014141472
:100110001414004122140802015109063E415955A8
:100120005E7E0909097E7F494949363E41414122A7
:100130007F4141413E7F494949417F090909013ECB
:100140004141493A7F0808087F00417F4100304023
:1001500040403F7F081422417F404040407F020CD6
:10016000027F7F0204087F3E4141413E7F09090929
:10017000061E2121215E7F09090976264949493257
:1001800001017F01013F4040403F1F2040201F7F71
:100190002010207F41221C2241070870080761516E
:1001A000494543007F41000002040810200000413F
:1001B0007F0004020102044040404040000102046C
:1001C0000020545454787F444444383844444444D0
:1001D000384444447F385454541804047E050508B8
:1001E0005454543C7F0804047800447D400020406F
:1001F000443D007F1028440000417F40007C04788B
:1002000004787C0804047838444444387C1414147A
:1002100008081414147C007C080404485454542026
:1002200004043F44443C4040207C1C2040201C3CB3
:100230004030403C44281028440C5050503C44640A
:10024000544C44000836414100007F0000414136D3
:10025000080002010204020011241FBECFEFD0E10A
:10026000DEBFCDBF11E0A0E0B1E0E8E9FDE002C0F3
:1002700005900D92AC35B107D9F711E0ACE5B1E0CE
:1002800001C01D92AC35B107E1F70E944B010C94FF
:10029000CA060C9400002F923F924F925F926F9289
:1002A0007F928F929F92AF92BF92CF92DF92EF9206
:1002B000FF920F931F93DF93CF93CDB7DEB76B976A
:1002C0000FB6F894DEBF0FBECDBF0E94140385E7C2
:1002D00090E0282F9A8389838BE790E0482F9C83B6
:1002E0008B838DE990E0682F9E838D8383EA90E075
:1002F00098878F833A815C817E81988500E018EF32
:100300000E94A50380EE9EE20197F1F729813A81D0
:100310004B815C816D817E818F81988500E010E04A
:100320000E94A5031AB88FEF8BB94CE9C42ED12CCB
:1003300031E0232E312C44244A94542C25E7822E7C
:10034000912C9DE9A92EB12C8FE5682E712C1A8E67
:10035000198E06E7E02EF12C109222011092210155
:100360001092240110922301898D805D8B8F0E9451
:10037000B2042E2DFA86E986C7010696482F9C877F
:100380008B876C2DDE86CD86C6010696988B8F876F
:100390003A855C857E85988900E018EF0E94A50368
:1003A00080EE9EE20197F1F729853A854B855C85C1
:1003B0006D857E858F85988900E010E00E94A503F9
:1003C000E20CF31CC40CD51C8E149F04CCF4CA148C
:1003D000DB04ECF59AEEE916F10441F41AEE812EF5
:1003E000912C560122242A94322C1DC086E0C81676
:1003F000D10409F096C04701B1E02B2E312C20C06A
:10040000E814F9040CF088C0CA14DB040CF051C0E5
:1004100096E0E916F10459F4A6E08A2E912C5601D3
:10042000F1E02F2E312C44244A94542C81C086E0D4
:10043000C816D10409F075C0470122242A94322C31
:10044000E1E04E2E512C76E0A72EB12C71C0AC14F9
:10045000BD040CF061C09AEEE916F10459F46AEE9D
:10046000862E912C560122242A94322C51E0452EBE
:10047000512C5EC08AE3C81681E0D80609F4A4C0F6
:100480009DEFC916D10409F04CC0E614F7040CF432
:100490004BC0C301C2968E159F050CF445C0898DD3
:1004A0009A8D01969A8F898F470141E0242E312C35
:1004B0002FC0AC14BD0484F596E0E916F10459F49C
:1004C000560131E0232E312C21E0422E512C96E0B2
:1004D000892E912C2DC08AE3C81681E0D80609F434
:1004E00073C09DEFC916D104E1F4C70106968615C5
:1004F0009705D4F0C3018C968E159F05ACF0898DBD
:100500009A8D01969A8F898F470122242A94322C42
:1005100044244A94542C09C080E091E00E94720562
:1005200007C04701560104C047018DEFA82EB12C2A
:10053000262D7A8A698AC301C296482F9C8B8B8BA1
:1005400064E084E091E09E8B8D8B87E091E0988F52
:100550008F8B3A895C897E8987E0988D0FEF17E051
:100560000E94A50380EE9EE20197F1F74E9915C017
:1005700095E06916710409F4EFCE29893A894B890F
:100580005C896D897E898F89988D00E010E00E94DA
:10059000A503089461087108DFCE4F99DDCE89EB81
:1005A0006816710409F4D8CE29893A894B895C8987
:1005B0006D897E898F89988D00E010E00E94A503E7
:1005C0000894611C711CC8CE0E94780486E490E0F7
:1005D000909322018093210180EA90E0909324017E
:1005E0008093230187E091E00E9472058B8D0E9429
:1005F000B20480E090E06B960FB6F894DEBF0FBEB9
:10060000CDBFCF91DF911F910F91FF90EF90DF90C1
:10061000CF90BF90AF909F908F907F906F905F90A2
:100620004F903F902F90089585B7806885BF85B71C
:10063000806885BF8FE781B98FEF87B90E948505F4
:1006400008959093200180931F01149826E328B900
:100650001398139A149A009771F480EF90E0909396
:100660001C0180931B0180E491E090931E01809314
:100670001D0188E432C08130910571F480E491E07D
:1006800090931C0180931B0180EF90E090931E01DA
:1006900080931D0188EE21C08230910571F480EFB6
:1006A00090E090931C0180931B0180E491E0909373
:1006B0001E0180931D0188E810C08330910581F4EC
:1006C00080E491E090931C0180931B0180EF90E007
:1006D00090931E0180931D0188E288B91398139AA4
:1006E00014988AE288B91398139A149A18B8139830
:1006F000139A18B81398139A80911B0190911C01BA
:10070000019798B91398139A80911B01815088B969
:100710001398139A14988BE288B91398139A149A21
:1007200018B81398139A18B81398139A80911D014A
:1007300090911E01019798B91398139A80911D0109
:10074000815088B91398139A08950F931F93CF93EC
:10075000DF93CDB7DEB728970FB6F894DEBF0FBE94
:10076000CDBFE22F2983232F3A834B835C83362F1F
:100770006D83672F7E838F8398877E2F4B815C816B
:10078000A32FEF81F88514988AE288B91398139AF9
:10079000149A28B91398139A78B91398139A58B9D8
:1007A0001398139A48B91398139A14988BE288B93E
:1007B0001398139A149A68B91398139A38B913981E
:1007C000139AF8B91398139AE8B91398139A1498CE
:1007D0008CE288B91398139A149A872F922F0CC021
:1007E00018B91398139A08B91398139A2F5F3F4FAB
:1007F000E217F307A8F701964817590718F02A2FB0
:10080000362FF6CF28960FB6F894DEBF0FBECDBFB9
:10081000DF91CF911F910F9108950F931F93CF9365
:10082000DF93CDB7DEB728970FB6F894DEBF0FBEC3
:10083000CDBFA22F2983232F3A834B835C83362F8E
:100840006D837E838F839887F8018A2FAB81BC816B
:10085000672F0F81188514989AE298B91398139A04
:10086000149A28B91398139A88B91398139AB8B997
:100870001398139AA8B91398139A14989BE298B9ED
:100880001398139A149A78B91398139A38B913983D
:10089000139A18B91398139A08B91398139A1498BD
:1008A0009CE298B91398139A149A482F522F0FC0AC
:1008B000218128B91398139A228128B93496139864
:1008C000139A01960817190798F74F5F5F4FA417FF
:1008D000B50718F0832F962FF5CF28960FB6F8940A
:1008E000DEBF0FBECDBFDF91CF911F910F91089555
:1008F0000F931F93CF93DF93CDB7DEB728970FB633
:10090000F894DEBF0FBECDBF1092220110922101DC
:1009100010922401109223011A821982EBE1F1E076
:10092000808191810197482F9C838B831E821D8239
:1009300082819381019798878F830485158520E0B4
:100940003A815C8160E07E8198850E94A5032896AB
:100950000FB6F894DEBF0FBECDBFDF91CF911F91D0
:100960000F910895EF92FF920F931F93CF93DF9310
:1009700040912101509122018A010C5F1F4F60912B
:10098000230170912401982F90529F3508F0A3C045
:10099000DB01179690E09C01220F331F220F331FBB
:1009A000280F391F2452304014988BE288B91398CD
:1009B000139A149A78B91398139A68B91398139ADA
:1009C000B8B91398139AA8B91398139ACA01CAE22E
:1009D000DCE238C0C8B91398139A149A98B91398DE
:1009E000139A88B91398139A98B91398139A88B9D7
:1009F0001398139A1498D8B91398139A149AF90162
:100A00002F5F3F4FE491AB01F1E018C0FF2EFE22B3
:100A100019F0E090260102C0E0902801E8B8139890
:100A2000139AFF2019F0F090250102C0F0902701E1
:100A3000F8B81398139A4F5F5F4FFF0FA417B507CD
:100A400028F7019614980817190708F0C3CF2AE26F
:100A500028B91398139A149A98B91398139A88B9C5
:100A60001398139A98B91398139A88B91398139AEC
:100A700014988CE288B91398139A149A0CC0809138
:100A8000280188B91398139A8091270188B913987F
:100A9000139A6F5F7F4FA617B70788F780912101E0
:100AA000909122010696909322018093210120913A
:100AB0001B0130911C018217930768F010922201EC
:100AC0001092210180912301909124010896EBE17D
:100AD000F1E091878087DF91CF911F910F91FF9077
:100AE000EF9008951F93CF93DF93EC0110E003C0C4
:100AF0000E94B2041F5FFE01E10FF11D8081882377
:100B0000B9F7DF91CF911F91089512988FE799EA75
:100B1000A3E081509040A040E1F700C00000129A8D
:100B20008FE799EAA3E081509040A040E1F700C030
:100B30000000149A139A159A10981198169A1498FE
:100B400088E288B91398139A149A149881E188B9A5
:100B50001398139A149A8FE792E3A2E08150904081
:100B6000A040E1F700C0000014988BEC88B91398FE
:100B7000139A149A81E088B91398139A149880EC08
:100B800088B91398139A149A86E288B91398139A1D
:100B900088E088B91398139A149881EC88B913984F
:100BA000139A149A80E188B91398139A149885ECD3
:100BB00088B91398139A149A85E388B91398139AED
:100BC0008EE388B91398139A149886E388B913981A
:100BD000139A149A88E488B91398139A149880EB9E
:100BE00088B91398139A149A8AE488B91398139AB7
:100BF000149881EB88B91398139A149A18B813981B
:100C0000139A8BE188B91398139A149886EB88B9D4
:100C10001398139A149A84E0E7E5F1E0919198B95A
:100C20001398139A8150D1F7149887EC88B91398C8
:100C3000139A149A85EB88B91398139A149886EF2F
:100C400088B91398139A149AE3E5F1E080E0919142
:100C500098B91398139A8F5F8330C9F7149882EF6D
:100C600088B91398139A149A18B81398139A149869
:100C700086E288B91398139A149A81E088B9139878
:100C8000139A14988AE388B91398139A149A85E5ED
:100C900088B91398139A149880EE88B91398139A08
:100CA000149A8FE0E3E4F1E0919198B91398139AC4
:100CB0008150D1F7149881EE88B91398139A149A39
:100CC000E3E3F1E080E0919198B91398139A8F5F74
:100CD0008F30C9F714988AE288B91398139A149A36
:100CE000EEE2F1E080E0919198B91398139A8F5F4A
:100CF0008430C9F714988BE288B91398139A149A20
:100D000084E0E9E2F1E0919198B91398139A815047
:100D1000D1F7149884E388B91398139A149A149805
:100D200084EB88B91398139A149A18B81398139AE5
:100D3000149887EB88B91398139A149A87E088B9A6
:100D40001398139A14988CE288B91398139A149AEA
:100D500080EF90E00BC018B81398139A18B8139846
:100D6000139A21503040B9F7019719F020E431E08F
:100D7000F2CF149889E288B91398139A149A8FEBDA
:100D800094EDA1E081509040A040E1F700C0000048
:080D9000119A0895F894FFCFB9
:100D980062726F6B656E0047616D65204F76657294
:100DA800212053636F7265203D2000F00040010050
:100DB8000000000000FFFF00000000013F000000ED
:100DC80000EF000025270510093A784D05180D3861
:100DD8003A1F001F1A180A0F064587320A0702072A
:0C0DE800050000010000000A8227000046
:00000001FF
