:100000000C943E000C945B000C945B000C945B0021
:100010000C945B000C945B000C945B000C945B00F4
:100020000C945B000C945B000C945B000C945B00E4
:100030000C945B000C945B000C945B000C945B00D4
:100040000C945B000C945B000C945B000C945B00C4
:100050000C945B000C945B000C945B000C945B00B4
:100060000C945B000C945B000C945B000C945B00A4
:100070000C945B000C945B000C945B0011241FBE7D
:10008000CFEFD0E1DEBFCDBF16E0A0E0B1E0E2EB04
:10009000F2E002C005900D92AE3DB107D9F716E02F
:1000A000AEEDB6E001C01D92A33EB107E1F70E949C
:1000B000DB000C9457010C940000559A81E4809366
:1000C000800082E18093810008959C0140E050E02F
:1000D00068ED78EB85E090E00E941A01309389008A
:1000E000209388000895009749F09093E20680934A
:1000F000E1061092E0061092DF0612C0E091E106E0
:10010000F091E2068091DF069091E00601969093CF
:10011000E0068093DF06E80FF91FE081EE2319F473
:10012000E0E0F0E046C0E73461F1E83474F4E33431
:1001300001F1E4342CF4E13431F1E234B9F425C0B6
:10014000E534D9F0E634DCF416C0E436A1F0E53647
:100150003CF4E236D1F0E33664F4E13639F413C00E
:10016000E63669F0E6364CF0E73659F0E2E0F0E0CA
:1001700020C08AE10BC08CE109C08EE107C08FE18D
:1001800005C081E203C083E201C085E28093DE0600
:10019000EB352CF08091DE06845F8093DE06E091E3
:1001A000DE06F0E0EE0FFF1FE050FF4F0190F08100
:1001B000E02DCF0108950F931F93CF93DF93279ADC
:1001C000529A559A81E48093800082E18093810065
:1001D00000E315E7CCE2D1E086E991E00E947300EC
:1001E00014C08230910589F00E9465005A9AC801B6
:1001F0000197F1F75A9880E391E1FE013197F1F709
:100200000197D9F785B1805885B980E090E00E94C8
:100210007300009731F784E991E1FE013197F1F71E
:100220000197D9F784E991E1FE013197F1F7019740
:10023000D9F7D2CF97FB092E05260ED057FD04D053
:1002400014D00AD0001C38F4509540953095219573
:100250003F4F4F4F5F4F0895F6F7909580957095FB
:1002600061957F4F8F4F9F4F0895A1E21A2EAA1BD1
:10027000BB1BFD010DC0AA1FBB1FEE1FFF1FA21756
:10028000B307E407F50720F0A21BB30BE40BF50B53
:10029000661F771F881F991F1A9469F760957095DC
:1002A000809590959B01AC01BD01CF010895F89414
:0202B000FFCF7E
:1002B2003E004100450049004E00520057005C00DC
:1002C200620068006E0075007B0083008B00930063
:1002D2009C00A500AF00B900C400D000DC00E9001A
:1002E200F70006011501260137014A015D0172017D
:1002F20088019F01B801D201EE010B022A024B02D2
:100302006E029302BA02E40210033F037003A403D5
:10031200DC03170455049704DD0427057505C80599
:1003220020067D06E0064907B8072D08A9082D0911
:10033200B9094D0AEA0A900B400CFA0CC00D910E55
:100342006F0F5A105311583A310A543A20507265BD
:100352006C7564652066726F6D20666972737420B5
:1003620043656C6C6F2053756974650A433A204A81
:100372002E532E20426163682C20686572652074BA
:1003820072616E73706F73656420666F72206D6147
:100392006E646F6C696E0A4D3A20342F340A4C3AFF
:1003A20020312F31360A4B3A440A284441662965E6
:1003B20020664166412028444166296520664166DF
:1003C20041207C20284442672966206742674220F8
:1003D2002844426729662067426742207C0A2844F3
:1003E2006367296620676367632028446367296619
:1003F2002067636763207C20284464662964206642
:100402006466642028446466296420666466642005
:100412007C0A28444266296520666463642042643B
:1004220063642046415E474620207C20285E476464
:10043200652964206564656420285E4764652964D3
:100442002065646564207C0A28636561295E6720F3
:1004520061656465206365646520416342412020D3
:100462007C2028422C466429632064466446202866
:10047200422C466429632064466446207C0A284252
:100482002C5E474129422041474645202864634269
:100492002961205E67666564207C202863424129C9
:1004A2006120656163652028414263296520646398
:1004B2004241207C0A5E6428413D63422920634117
:1004C200644120662841634229206341644120201F
:1004D2007C202847426529662067654241202847DB
:1004E200426529662067655E6342207C0A5E412878
:1004F2006341632920656365632041286341632961
:1005020020656365632020207C202864634229647F
:10051200206364656320646342412047464544206A
:100522007C0A4347414720414741472043474147CF
:100532002041474147207C202844463D63294220F0
:100542006346634620284446632942206346634645
:10055200207C0A284447422941204247424720281A
:1005620044474229412042474247207C2028445E9A
:100572006367296620676367632028446367296687
:100582002067636763207C0A2844416629652066E8
:100592006463422041474645204443422C412C207B
:1005A2007C205E472C2845426329206442636420F4
:1005B200472C28454263292064426364207C0A3D1B
:1005C200472C28454142292063414263203D472C64
:1005D20028454142292063414263207C20472C2840
:1005E200454163292028655E6728613229206129F7
:1005F20045463D472041426364207C0A257365637A
:100602006F6E6420706172740A286563412942200A
:10061200636465662028676563296420656667618F
:10062200207C205F62615E676120613D67666720B2
:100632006765633D422041454647207C0A412C289C
:10064200454163292065666765202866644129471C
:100652002046444546207C20412C44464120646586
:100662006665205E673D6665662066655E64652038
:100672007C0A653D6463642064425E4746204547C8
:10068200426420655E676167207C20616563422069
:10069200636541632045415E474620454443422C01
:1006A200207C0A412C3220283D6766206564634223
:1006B200204129286766652064634241207C2047E7
:1006C20029286665642063424147204629286564DB
:1006D200632042414746207C0A4629286463422916
:1006E200205B63635D655B41415D65205B42425D0A
:1006F200655B63635D65205B64645D655B42425D6F
:1007020065207C205B63635D655B41415D65205BC9
:1007120064645D655B42425D65205B63635D655B4E
:1007220041415D65205B64645D655B42425D6520BD
:100732007C0A5B63635D655B41415D65205B4242B0
:100742005D655B63635D65205B64645D655B6565D8
:100752005D65205B66665D655B41415D65207C2071
:100762005B65655D655B66665D65205B67675D65AC
:100772005B41415D65205B66665D655B67675D65E4
:10078200205B61615D655B66665D65207C0A5B6717
:10079200675D655B66665D65205B67675D655B657A
:1007A200655D65205B66665D655B65655D65205BB5
:1007B20066665D655B64645D65207C205B65655D86
:1007C200655B64645D65205B65655D655B63635D58
:1007D20065205B64645D655B63635D65205B646487
:1007E2005D655B42425D65207C0A63654142203D56
:1007F20063415E63412064415E64412065413D6620
:1008020041207C205E66416741205E674161412054
:100812005E62413D62413D6327415E632741207C28
:100822000A642728664166292064276664276620B1
:100832006427286641662920642766642766207C2F
:10084200206427286541652920642765642765207F
:100852006427286541652920642765642765207C13
:100862000A63272867416729206327676327672070
:100872006327286741672920632767632767207CEE
:0E088200205B443136416664275D207C5D00BA
:00000001FF
