:100000000C94BF000C94DC000C94DC000C94DC001D
:100010000C94DC000C94DC000C94DC000C94DC00F0
:100020000C94DC000C94DC000C94DC000C94DC00E0
:100030000C94DC000C94DC000C94DC000C94DC00D0
:100040000C94DC000C94DC000C94DC000C94DC00C0
:100050000C94DC000C94DC000C94DC000C94DC00B0
:100060000C94DC000C94DC000C94DC000C94DC00A0
:100070000C94DC000C94DC000C94DC006E616E00CF
:10008000696E660000407A10F35A00A0724E18099B
:100090000010A5D4E80000E87648170000E40B54EF
:1000A000020000CA9A3B000000E1F50500008096BE
:1000B0009800000040420F000000A08601000000F0
:1000C000102700000000E8030000000064000000AA
:1000D00000000A00000000000100000000002C7673
:1000E000D888DC674F0823DFC1DFAE59E1B1B7968E
:1000F000E5E3E453C63AE651997696E8E6C28426EB
:10010000EB898C9B62ED407C6FFCEFBC9C9F40F2C6
:10011000BAA56FA5F490055A2AF75C936B6CF96742
:100120006DC11BFCE0E40D47FEF520E6B500D0ED07
:10013000902E0300943577050080841E080000206F
:100140004E0A000000C80C333333330F986E12830D
:100150001141EF8D2114893BE65516CFFEE6DB18E1
:10016000D1844B381BF77C1D901DA4BBE4242032A6
:1001700084725E228100C9F124ECA1E53D2711249F
:100180001FBECFEFD0E1DEBFCDBF11E0A0E0B1E0F8
:10019000E4EEF0E102C005900D92AC34B107D9F75E
:1001A00011E0ACE4B1E001C01D92A235B107E1F766
:1001B0000E947C010C9470080C9400001F93182F6F
:1001C0008A3019F48DE00E94DE008091C00085FF26
:1001D000FCCF1093C600212F332727FD3095C9018E
:1001E0001F9108958091C00087FFFCCF8091C600C9
:1001F00090E008951092C5008DE48093C40088E1DA
:100200008093C10086E08093C2008EE391E09093DA
:100210004F0180934E01909351018093500180E3F0
:1002200091E090934D0180934C01089584E0809378
:100230007C0086E880937A000895569A579A83E85E
:100240008093B00081E08093B10008951F93182F30
:10025000813F08F010EF00D000D0EDB7FEB7319627
:1002600080E091E0ADB7BEB712969C938E93119744
:10027000128313820E94FD071093B3000F900F901A
:100280000F900F901F910895EF92FF920F931F937D
:1002900080917A00806480937A0080917A0086FD54
:1002A000FCCFE0907800F090790000D000D08FE093
:1002B00091E0EDB7FEB792838183F482E3820E94DE
:1002C000FD0700E010E0C801B7010E94BB0523E371
:1002D00033E343E550E40E94490620E030EC4FE769
:1002E00054E40E9453050F900F900F900F901F91B0
:1002F0000F91FF90EF900895CF92DF92EF92FF92CF
:100300000F931F93CF93DF930E94FA000E941D0169
:1003100084E080937C0086E880937A00C0E0D0E09F
:1003200097E1C92E91E0D92E8FE1E82E81E0F82ED9
:100330000CE211E000D000D0EDB7FEB7D282C1824E
:10034000D483C3830E94FD070F900F900F900F90EE
:100350008FEF0E9426010E94440100D000D000D0FF
:10036000EDB7FEB7F282E18263837483858396835F
:100370000E94FD0788E893E12DB73EB72A5F3F4F03
:100380000FB6F8943EBF0FBE2DBFF8013197F1F7BD
:100390000197D9F72196CECFA1E1B0E0E2EDF1E0EF
:1003A0000C94AC063C017F876E876A01FC011782C2
:1003B0001682838181FD03C06FEF7FEF6FC39E01C3
:1003C0002F5F3F4F398B288BF3012381EE85FF850B
:1003D00023FD859123FF8191FF87EE87882309F410
:1003E0005AC3853251F4EE85FF8523FD859123FFA5
:1003F0008191FF87EE87853229F490E0B3010E9456
:10040000D107E2CF982F10E0882499241032B0F45D
:100410009B3269F09C3228F4903251F0933271F49F
:100420000BC09D3239F0903349F4116028C012603E
:10043000146025C0186023C0106121C017FD2AC0B8
:10044000892F80538A3078F416FF06C0FAE09F9E09
:10045000902C1124980E13C03AE0839E802C112416
:10046000880E10620CC09E3221F416FD14C3106475
:1004700006C09C3611F4106802C0983659F4EE8517
:10048000FF8523FD959123FF9191FF87EE879923A7
:1004900009F0BCCF892F8554833020F4812F8061EF
:1004A000905E07C0892F8556833008F09FC1812F49
:1004B0008F7E86FD02C076E0972E6FE3F62EF8223F
:1004C000953619F4F0E4FF2A07C0963619F420E8AF
:1004D000F22A02C091109A94F7FE0AC03BE3391544
:1004E00018F45CE3B52E02C0B92CB39427E009C020
:1004F00047E0491520F4BB2447E0942EF7CF292D7F
:10050000BB24C60104969D878C87F60160817181AA
:1005100082819381AE014F5F5F4F0B2D0E94E306F6
:100520006C010981202E332400FF04C003FD02C0AA
:100530001DE209C0F1FE02C01BE205C0F2FC02C0D0
:1005400010E001C010E2C1018C709070892BB9F1EC
:10055000112311F483E001C084E0881510F0882491
:100560000AC0881AF3FC07C080E290E0B3010E9441
:10057000D1078A94C9F7112329F0812F90E0B301A4
:100580000E94D10723FE03C00CE710E00EC000E874
:1005900010E00BC0E114F10409F0805290E0B301C7
:1005A0000E94D1070F5F1F4F05C0EF2CFF24F0E121
:1005B000EF22FF24F8018491882361F714C1F7FE2C
:1005C00012C0BC0C24FE04C08A81813309F4BA94A1
:1005D0001B141CF0BB24B3942DC0F8E0FB1550F5A0
:1005E00038E0B32E27C0F6FC25C0892D90E08C158D
:1005F0009D054CF02CEFC2162FEFD20624F030E808
:10060000F32A01C09A94992049F0E2E0F0E0EC0F5F
:10061000FD1FE90DF11D80818033A1F3F7FE0AC0B3
:10062000B92CB394892D90E0C816D90614F09924FA
:1006300001C09C18F7FC03C025E030E009C01C1481
:100640001D041CF021E030E003C096012F5F3F4FF6
:10065000112311F02F5F3F4F992029F0892D90E051
:100660000196280F391F882D90E02817390714F0BC
:10067000882401C0821A4F2C5524C20189709070C1
:10068000892B39F008C080E290E0B3010E94D107C5
:100690008A948820C1F7112329F0812F90E0B301BB
:1006A0000E94D10743FE07C008C080E390E0B30179
:1006B0000E94D1078A948820C1F7F7FE46C08601C0
:1006C000D7FE02C000E010E076010894E11CF11CA6
:1006D000E01AF10A41E050E04C0F5D1FE40EF51EF8
:1006E00026014B185108892D90E0AA24BB24A81A92
:1006F000B90A5FEF0F3F150729F48EE290E0B301CE
:100700000E94D107C016D10634F0401651061CF4E1
:10071000F701808101C080E3015010400894E11C82
:10072000F11C0A151B052CF090E0B3010E94D107C3
:10073000E0CF0C151D0539F49A81963318F49533E2
:1007400011F424FE81E390E04BC08A81813309F0EB
:100750000F7E90E0B3010E94D1079920A1F08EE2B4
:1007600090E0B3010E94D10712E0E1E0F0E0EC0F6D
:10077000FD1FE10FF11D1F5F808190E0B3010E941A
:10078000D1079A9491F744FC03C085E690E002C03B
:1007900085E490E0B3010E94D107D7FC05C0C114E5
:1007A000D10441F404FF06C0D094C194D108D3947D
:1007B0008DE201C08BE290E0B3010E94D10780E39B
:1007C00005C08F5F26EF3FEFC20ED31E3AE0C3167F
:1007D000D104BCF790E0B3010E94D107C601C096D6
:1007E000B3010E94D107CC84DD8452C1933631F02D
:1007F000933799F0933509F059C023C0F6018081F1
:1008000089835E010894A11CB11C22E030E0C20E75
:10081000D31E21E0E22EF12C12C0F601A080B1809F
:1008200016FD03C06FEF7FEF02C0692D70E022E07C
:1008300030E0C20ED31EC5010E94C6077C011F779F
:1008400013C0F601A080B18016FD03C06FEF7FEFEB
:1008500002C0692D70E022E030E0C20ED31EC50157
:100860000E94BB077C01106813FF07C01BC080E219
:1008700090E0B3010E94D1078A94882D90E0E81699
:10088000F906A8F30FC0F50117FD859117FF8191B7
:100890005F0190E0B3010E94D10781108A9408940F
:1008A000E108F108E114F10471F7F2C0943611F097
:1008B000993689F517FF08C0F60120813181428100
:1008C000538184E090E00AC0F601808191819C010F
:1008D000442737FD4095542F82E090E0C80ED91E82
:1008E0009FE6F92EF12257FF09C0509540953095AB
:1008F00021953F4F4F4F5F4F90E8F92ACA01B90148
:10090000AE014F5F5F4F2AE030E00E941208E82EF0
:10091000E889EE1A41C0953721F41F7E2AE030E0C5
:100920001CC0197F9F3661F0903720F4983509F08C
:10093000B2C00FC0903739F0983709F0ACC004C08E
:1009400028E030E00AC0106114FD146020E130E0BE
:1009500004C014FD166020E132E017FF08C0F60164
:10096000608171818281938144E050E008C0F6018A
:1009700080819181BC0180E090E042E050E0C40EB3
:10098000D51EAE014F5F5F4F0E941208E82E5889B6
:10099000E51A8FE7F82EF122F6FE0BC08EEFF82253
:1009A000E91438F4F4FE07C0F2FC05C09FEEF9220A
:1009B00002C01E2D01C0192DF4FE0DC0FE01EE0D6A
:1009C000F11D8081803319F4E9EEFE2208C01F5F1B
:1009D000F2FE05C003C08F2D867809F01F5F0F2D32
:1009E000F3FC14C0F0FE0FC0181510F09E2C0BC0C5
:1009F0009E2C980C911A182D06C080E290E0B3014D
:100A00000E94D1071F5F1815C0F304C0181510F419
:100A1000811A01C0882404FF0FC080E390E0B30175
:100A20000E94D10702FF1DC001FD03C088E790E0CE
:100A30000EC088E590E00BC0802F867891F001FF12
:100A400002C08BE201C080E2F7FC8DE290E0B301CE
:100A50000E94D10706C080E390E0B3010E94D10755
:100A60009A94E914C0F3EA94E1E0F0E0EC0FFD1F82
:100A7000EE0DF11D808190E0B3010E94D107EE20C0
:100A800091F706C080E290E0B3010E94D1078A94FA
:100A90008820C1F799CCF30166817781CB016196FB
:100AA000E2E10C94C8060CD0BAC0B2D040F0A9D094
:100AB00030F021F45F3F19F09BC05111E4C09EC09B
:100AC000BFD098F39923C9F35523B1F3951B550B68
:100AD000BB27AA2762177307840738F09F5F5F4F11
:100AE000220F331F441FAA1FA9F333D00E2E3AF052
:100AF000E0E830D091505040E695001CCAF729D06C
:100B0000FE2F27D0660F771F881FBB1F26173707BA
:100B10004807AB07B0E809F0BB0B802DBF01FF27EA
:100B200093585F4F2AF09E3F510568F061C0ABC0FB
:100B30005F3FECF3983EDCF3869577956795B79524
:100B4000F7959F5FC9F7880F911D9695879597F93F
:100B50000895E1E0660F771F881FBB1F62177307B8
:100B60008407BA0720F0621B730B840BBA0BEE1FCD
:100B700088F7E0950895E89409C097FB3EF49095B6
:100B80008095709561957F4F8F4F9F4F9923A9F066
:100B9000F92F96E9BB279395F695879577956795F5
:100BA000B795F111F8CFFAF4BB0F11F460FF1BC039
:100BB0006F5F7F4F8F4F9F4F16C0882311F096E9CC
:100BC00011C0772321F09EE8872F762F05C066237A
:100BD00071F096E8862F70E060E02AF09A95660F33
:100BE000771F881FDAF7880F9695879597F90895EC
:100BF00097F99F6780E870E060E008959FEF80ECD0
:100C0000089500240A941616170618060906089572
:100C100000240A9412161306140605060895092ED8
:100C20000394000C11F4882352F0BB0F40F4BF2B47
:100C300011F460FF04C06F5F7F4F8F4F9F4F089587
:100C400057FD9058440F551F59F05F3F71F047957D
:100C5000880F97FB991F61F09F3F79F08795089562
:100C6000121613061406551FF2CF4695F1DF08C081
:100C7000161617061806991FF1CF8695710561059E
:100C800008940895E894BB2766277727CB0197F946
:100C900008950BD0C4CFB5DF28F0BADF18F0952344
:100CA00009F0A6CFABCF1124EECFCADFA0F3959FFA
:100CB000D1F3950F50E0551F629FF001729FBB2743
:100CC000F00DB11D639FAA27F00DB11DAA1F649FEF
:100CD0006627B00DA11D661F829F2227B00DA11DA2
:100CE000621F739FB00DA11D621F839FA00D611D28
:100CF000221F749F3327A00D611D231F849F600D49
:100D0000211D822F762F6A2F11249F5750408AF081
:100D1000E1F088234AF0EE0FFF1FBB1F661F771F0D
:100D2000881F91505040A9F79E3F510570F060CF49
:100D3000AACF5F3FECF3983EDCF3869577956795F5
:100D4000B795F795E7959F5FC1F7FE2B880F911D2B
:100D50009695879597F908952F923F924F925F92BB
:100D60006F927F928F929F92AF92BF92CF92DF92BB
:100D7000EF92FF920F931F93CF93DF93CDB7DEB720
:100D8000CA1BDB0B0FB6F894DEBF0FBECDBF0994B4
:100D90002A88398848885F846E847D848C849B840B
:100DA000AA84B984C884DF80EE80FD800C811B8119
:100DB000AA81B981CE0FD11D0FB6F894DEBF0FBE48
:100DC000CDBFED010895283008F027E03327DA0180
:100DD000990F311D87FD916000966105710539F409
:100DE00032602E5F3D9330E32A95E1F708959F3FEF
:100DF00030F080387105610509F03C5F3C5F3D9340
:100E0000913008F08068911DDF93CF931F930F936B
:100E1000FF92EF92192F987F9695E92F96959695C8
:100E2000E90FFF27E252FF4F99273327EE24FF24D3
:100E3000A701E70105900894079428F4360FE71EF0
:100E4000F81E491F511D660F771F881F991F0694B2
:100E5000A1F70590079428F4E70EF81E491F561FC6
:100E6000C11D770F881F991F661F0694A1F7059073
:100E7000079428F4F80E491F561FC71FD11D880F6D
:100E8000991F661F771F0694A1F70590079420F419
:100E9000490F561FC71FD81F990F661F771F881F3E
:100EA0000694A9F784911095177041F0D695C795CF
:100EB00057954795F794E7941A95C1F7E4E8F0E061
:100EC00068941590159135916591959105907FE203
:100ED0007395E118F10A430B560BC90BD009C0F703
:100EE000E10CF11E431F561FC91FD01D7EF4703345
:100EF00011F48A95E6CFE894015030F0080F0AF417
:100F00000027021708F4202F2395022F7A3328F0A8
:100F100079E37D932A95E9F710C07D932A9589F6A8
:100F2000069497956795379517951794E118F10AE8
:100F3000430B560BC90BD00998F023957E917395FE
:100F40007A3308F070E37C932013B8F77E917061D8
:100F50007D9330F0839571E37D9370E32A95E1F7FB
:100F60001124EF90FF900F911F91CF91DF9199275E
:100F700087FD90950895FC01059061507040011027
:100F8000D8F7809590958E0F9F1F0895FC016150B2
:100F9000704001900110D8F7809590958E0F9F1F9B
:100FA00008950F931F93CF93DF938C01EB018B81F7
:100FB00081FF1BC082FF0DC02E813F818C819D81EE
:100FC0002817390764F4E881F9810193F983E883EC
:100FD00006C0E885F985802F0995892B31F48E812B
:100FE0009F8101969F838E8302C00FEF1FEFC80180
:100FF000DF91CF911F910F910895A0E0B0E0E3E061
:10100000F8E00C94BC06FE013596619171918091D7
:101010004E0190914F01AF010E94CC012096E2E079
:101020000C94D806FA01AA27283051F1203181F119
:10103000E8946F936E7F6E5F7F4F8F4F9F4FAF4FE0
:10104000B1E03ED0B4E03CD0670F781F891F9A1FF3
:10105000A11D680F791F8A1F911DA11D6A0F711DA7
:10106000811D911DA11D20D009F468943F912AE0B3
:10107000269F11243019305D3193DEF6CF0108959B
:10108000462F4770405D4193B3E00FD0C9F7F6CFCC
:10109000462F4F70405D4A3318F0495D31FD405294
:1010A000419302D0A9F7EACFB4E0A695979587952A
:1010B00077956795BA95C9F7009761057105089509
:1010C0009B01AC010A2E06945795479537952795B5
:1010D000BA95C9F7620F731F841F951FA01D08954D
:0410E000F894FFCFB2
:1010E40050574D3D25337520203D3D3E2020004185
:1010F40044433D25346400253034643A20200020E4
:10110400202D2D3E202025352E336620560D0A0035
:1011140000000001000000000000F20000000000D8
:0C112400000200000000DE0000000000DF
:00000001FF
